:020000040800F2
:100000003017002021020008BF1700085315000810
:10001000BD17000861040008DD1A00080000000098
:10002000000000000000000000000000890100083E
:100030006304000800000000CD010008011800085A
:100040003B0200083B0200083B0200083B0200089C
:100050003B0200083B0200083B0200083B0200088C
:100060003B0200083B0200083B0200083B0200087C
:100070003B0200083B0200083B0200083B0200086C
:100080003B0200083B0200083B0200083B0200085C
:100090003B0200083B0200083B0200083B0200084C
:1000A0003B020008A91800083B0200083B020008B8
:1000B0003B0200083B0200083B0200083B0200082C
:1000C0003B0200083B0200083B0200083B0200081C
:1000D0003B0200083B0200083B0200083B0200080C
:1000E0003B0200083B0200083B02000800F002F857
:1000F00000F03AF80AA090E8000C82448344AAF188
:100100000107DA4501D100F02FF8AFF2090EBAE885
:100110000F0013F0010F18BFFB1A43F0010318473B
:1001200094310000B4310000103A24BF78C878C17F
:10013000FAD8520724BF30C830C144BF04680C60ED
:10014000704700000023002400250026103A28BF35
:1001500078C1FBD8520728BF30C148BF0B60704739
:100160001FB51FBD10B510BD00F0D6F81146FFF742
:10017000F7FF01F0C5FC00F0F4F803B4FFF7F2FF5D
:1001800003BC00F0FBF80000224B19680868B0E8D7
:10019000F00F80F30988BFF36F8F4FF0000080F3FA
:1001A00011884EF00D0E70470000000006480068F0
:1001B000006880F3088862B661B6BFF34F8FBFF363
:1001C0006F8F00DF00BF00BF08ED00E0EFF3098094
:1001D000BFF36F8F0F4B1A6820E9F00F106008B55E
:1001E0004FF0500080F31188BFF34F8FBFF36F8F34
:1001F00002F03AF84FF0000080F31188BDE80840A3
:1002000019680868B0E8F00F80F30988BFF36F8FB2
:10021000704700BF6C000020EFF3058070470000BE
:100220000948804709480047FEE7FEE7FEE7FEE78A
:10023000FEE7FEE7FEE7FEE7FEE7FEE704480549C6
:10024000054A064B70470000A5180008ED0000089D
:100250003011002030170020301300203013002010
:1002600010B5203AC0F00B80B1E81850203AA0E851
:100270001850B1E81850A0E81850BFF4F5AF5FEA85
:10028000027C24BFB1E81850A0E8185044BF18C938
:1002900018C0BDE810405FEA827C24BF51F8043BDF
:1002A00040F8043B08BF7047D20728BF31F8023B33
:1002B00048BF11F8012B28BF20F8023B48BF00F8C7
:1002C000012B70474FF0000200B513469446964646
:1002D000203922BFA0E80C50A0E80C50B1F1200159
:1002E000BFF4F7AF090728BFA0E80C5048BF0CC007
:1002F0005DF804EB890028BF40F8042B08BF704765
:1003000048BF20F8022B11F0804F18BF00F8012BD6
:100310007047704770477047754600F02BF8AE463F
:1003200005006946534620F00700854618B020B501
:10033000FFF784FFBDE820404FF000064FF00007B4
:100340004FF000084FF0000B21F00701AC46ACE87D
:10035000C009ACE8C009ACE8C009ACE8C0098D46EA
:10036000704710B50446AFF300802046BDE810404A
:10037000FFF703BF00487047D01000200149182044
:10038000ABBEFEE7260002007047000070B50446D1
:1003900000688168C943C90717D1816821F001014C
:1003A000816000F013FB05460AE000BF00F00EFB81
:1003B000401B022804D920688068C043C00706D0CB
:1003C00020688068C043C007F0D0002070BDA06ADC
:1003D00040F01000A062E06A40F00100E0620120FD
:1003E00070BD0000F8B500260446009600688168DC
:1003F000C943C9072DD0816841F0010181601648C9
:1004000016490068B0FBF1F000E0401E00900028A3
:10041000FBD100F0DBFA054616E000BF00F0D6FA8B
:10042000401B022810D920688068C043C0070BD049
:10043000A06A40F01000A062E06A40F00100E062B3
:1004400084F824600120F8BD20688068C043C0079C
:10045000E4D10020F8BD00006800002040420F00F9
:10046000FEE77047036800225A620068426A8A42C7
:10047000FCD37047F8B50024009490F8242025465A
:10048000012A12D0012280F824204A681F23072A5B
:100490000DD20668776B521E02EB820293409F4397
:1004A0000B6893401F43776319E00220F8BD06688C
:1004B0000D2A0AD2376BD21F02EB820293409F4370
:1004C0000B6893401F43376309E0F76A0D3A02EB6C
:1004D000820293409F430B6893401F43F7620A6870
:1004E000072306680A2A0AD3F7680A3A02EB42028F
:1004F00093409F438B6893401F43F76008E0376940
:1005000002EB420293409F438B6893401F43376145
:100510000A68102A01D0112A20D1124B02689A428F
:1005200017D193681B0219D4936843F400039360B6
:100530000968102912D10C490C4A0968B1FBF2F183
:1005400001EB8101490000E0491E00910029FBD127
:1005500004E0816A41F020018162012480F8245086
:100560002046F8BD002401406800002040420F00F2
:100570000068C06C704700002DE9F0414FF00007A3
:1005800004003D467ED0A06A002628B9E66284F8C1
:100590002460204600F07EF82046FFF7F7FEA16AAF
:1005A000C90600D420B1A06A40F01000A06269E042
:1005B000A16A21F4885141F00201A1626268E169F7
:1005C000237B0A4347EA43010A43A1684FF480773B
:1005D000B94209D0012907D05FF0000194F814C096
:1005E000BCF1010F02D00AE03946F7E7F3B1A36A84
:1005F00043F02003A362E36A43F00103E36223684C
:10060000D3F804C02CF4694C4CEA010CC3F804C0C4
:1006100021688B68DFF870C003EA0C0313438B601A
:10062000A168B9420BD0012909D00CE0DFF85CC009
:10063000A3690CEB43330B4343F40061DFE7218AEA
:100640000D05A5F580152168CB6A23F470032B43B3
:10065000CB62216889680E4B1940914208D1E6624D
:10066000A16A21F0020141F00101A162BDE8F0811F
:10067000A06A20F0020040F01000A062E06A40F0A2
:100680000100E0620120F1E7FDF7E1FF00E0FFFF7C
:10069000FE0E1FFF00B585B000210091019102916F
:1006A000039100680E49884218D10E48816941F4CF
:1006B00000718161816901F400710491816941F0E7
:1006C000040181618069694600F004000490012002
:1006D000009003200190044800F082F805B000BDAE
:1006E00000240140001002400008014070B504469B
:1006F00090F8240001280DD0012084F82400204621
:10070000FFF770FE02004FF0000005D084F82400CF
:10071000104670BD022070BDA16A40F201239943CA
:1007200041F48071A1621F4D23681F49AB4218D16B
:100730000E6816F4702F14D0A66A46F48016A662CE
:100740000E68760505D5A66A26F4005646F480564E
:10075000A662A66AF6040AD5E66A26F00606E662EE
:1007600006E0A66A26F48016A6625E68E9E7E06203
:1007700084F824006FF00200186020688368C3F3D7
:100780004243072B05D1A84208D1096811F4702F04
:1007900004D0816841F480118160B9E7816841F437
:1007A000A001F9E7002801400424014010B50446E7
:1007B00090F82400012807D0012084F82400204666
:1007C000FFF7E4FD10B107E0022010BDA16A21F49B
:1007D000885141F00101A162002184F8241010BD6C
:1007E0002DE9F84FDFF8B891002409F1040A0AF165
:1007F000040B23460F270BF1040EC9E00125A54089
:100800002A40AA427DD1674ED1F804C0ACEB06085D
:10081000B44532D014DCBCF1030F3AD009DCBCF192
:10082000000F2AD0BCF1010F1CD0BCF1020F31D156
:100830001DE0BCF1110F17D0BCF1120F2AD119E045
:10084000B8F5881F19D006DCB8F5803F15D0B8F58B
:10085000801F1FD111E0B8F5001F0ED0B8F5041F9E
:1008600018D10AE0CB6815E0CB681B1D12E0CB68FD
:1008700008330FE0CB680C330CE08B682BB1012BF5
:100880004FF0080303D0456104E0042302E0056152
:1008900000E00023FF2A01D8064601E000F104062B
:1008A0004FEA840501D9A5F12005D6F8008007FAA2
:1008B00005FC28EA0C0803FA05F548EA0508C6F81D
:1008C00000804D68ED0062D5374DAE6946F00106F7
:1008D000AE61AD6924F0030605F001050095334DC6
:1008E00006EB050CDCF80850A607360F07FA06F8E9
:1008F00025EA0805DFF8B880404503D14FF000082D
:1009000017E044E0DFF8AC80404502D14FF0010829
:100910000FE0DFF8A480404502D14FF0020808E064
:10092000DFF89880404502D14FF0030801E04FF016
:10093000040808FA06F848EA0508CCF808804D686B
:10094000D9F80060ED034D4601D5164300E096430B
:100950002E604D68DAF80060AD03554601D51643A8
:1009600000E096432E604D68DBF80060ED025D46C6
:1009700001D5164300E096432E604D68DEF8006016
:10098000AD02754601D5164300E096432E60641C07
:100990000D682A46E5407FF431AFBDE8F88F0000CE
:1009A000000401400000111000100240000001404E
:1009B00000080140000C01400010014000140140FB
:1009C0000AB1016170470904FBE700000148806833
:1009D000704700005C0000200248816802781144E2
:1009E000816070475C000020074810B5016841F045
:1009F00010010160032000F0A1F80F2000F006F8BC
:100A000000F04AF8002010BD0020024030B5054635
:100A10001C4887B0816941F400618161806906A941
:100A200000F40060009001A800F0A6F900F0C4F9FD
:100A30001549164AB0FBF1F11548491E02604160A4
:100A400040F2E7320021C0E903218160816100F0BA
:100A5000BFFB040012D10E4800F022FC04000DD1AF
:100A6000192000F03DF8102D07D200222946192048
:100A700000F044F80748056000E0012407B0204674
:100A800030BD00000010024040420F00002C014029
:100A900098030020600000200F4808B5816941F0EC
:100AA00001018161816901F001010091C16941F099
:100AB0008051C161C069002200F0805000900F2178
:100AC000901E00F01BF80548416821F0E06141F0FC
:100AD0000071416008BD00000010024000000140AC
:100AE000002809DB00F01F0201219140400980002D
:100AF00000F1E020C0F8001170470000F0B40E4B88
:100B00001B680C46C3F30223C3F10705042D00D96B
:100B10000425191D072901D2002300E0DB1E012650
:100B200006FA05F1491E214099409E40761E164066
:100B30003143F0BC00F0D3BF0CED00E0064900F0FB
:100B4000070208684FF6FF03184040EA0220034AF4
:100B500010430860704700000CED00E00000FA054B
:100B60002DE9F84305460078354CC00754D0E069BC
:100B70000026C00008D4E06940F08050E061E069E0
:100B8000012600F0805000902E480168C90512D45B
:100B90000168804641F480710160FFF717FF074646
:100BA00005E000BFFFF712FFC01B642823D8D8F868
:100BB0000000C005F6D5206A10F4407021D0A98845
:100BC00001F4407181421CD0206A1F49012220F4A7
:100BD00040700A6000220A602062C00711D0FFF74F
:100BE000F5FE074641F2883808E000BFFFF7EEFE49
:100BF000C11B414502D90320BDE8F883206A800764
:100C0000F4D5206A696820F44070084320621EB160
:100C1000E06920F08050E0612878800705D56068A1
:100C2000A96820F44040084360602878C00605D5D4
:100C30006068E96820F48000084360600020DBE71A
:100C40000010024000700040400442422DE9F0478D
:100C50000F46050061D0434E306800F00700B842EF
:100C600009D2306820F0070038433060306800F067
:100C70000700B84251D128683B4C810712D5400784
:100C800003D5606840F4E06060602878000703D511
:100C9000606840F4605060606068A96820F0F0000F
:100CA000084360602878C00728D06868012810D001
:100CB0002168022810D0890700292EDA616821F006
:100CC000030101436160FFF781FE804641F28839EC
:100CD0000DE021688903EFE78901EDE7FFF776FE74
:100CE000A0EB0801494502D90320BDE8F087606800
:100CF000696800F00C00B0EB810FEFD1306800F0B4
:100D00000700B8420BD9306820F007003843306044
:100D1000306800F00700B84201D00120E5E72878EC
:100D2000400705D56068E96820F4E060084360602A
:100D30002878000706D56068296920F4605040EAE9
:100D4000C100606000F048F86168084AC1F303110F
:100D5000515CC8400649086006480068FFF756FE27
:100D60000020C2E700200240001002408C32000840
:100D700068000020600000200F2202600C4A5368C7
:100D800003F003034360536803F0F0038360536888
:100D900003F4E063C36052684FF4E06303EAD202F5
:100DA00002610448006800F0070008607047000016
:100DB00000100240002002400448054900684968CC
:100DC000044AC1F3C221515CC8407047680000204A
:100DD000001002409C32000812A185B00FC98DE8B6
:100DE0000F0014A0144A006804905168134801F0E1
:100DF0000C03042B10D0082B0ED1C1F38343C9037D
:100E00001DF803000AD5516804AAC1F34041515CA2
:100E10000A4A5043B0FBF1F005B070470849484317
:100E2000FAE7000002030405060708090A0B0C0D87
:100E30000E0F1010010200000010024000127A0094
:100E400000093D002DE9F84F040070D02078C04D16
:100E5000C00749D06868C0F38100012807D06868DE
:100E6000C0F38100022809D16868C00306D528684C
:100E7000800339D560680028E7D035E06068B0F5B8
:100E8000803F0BD010B1B0F5A02F11D0286820F40E
:100E900080302860286820F4802002E0286840F430
:100EA00080302860606890B1FFF790FD06460AE048
:100EB000286840F480202860F0E700BFFFF786FD37
:100EC000801B642873D828688003F7D50CE0FFF7EF
:100ED0007DFD064605E000BFFFF778FD801B642816
:100EE000F0D828688003F7D420789A4E80074FF016
:100EF00001094FF0000839D5686810F00C0F07D0D1
:100F00006868C0F38100022809D16868C00306D46C
:100F10002868800714D52069012808D110E02069CD
:100F2000B0B1C6F80090FFF751FD074605E00AE1B1
:100F3000FFF74CFDC01B0228C4D828688007F7D5EE
:100F40002868616920F0F80040EAC10028600DE0DF
:100F5000C6F80080FFF73AFD074604E0FFF736FDCC
:100F6000C01B022823D828688007F7D42078000700
:100F70002CD57948A169D9B1C0F80090FFF726FDBA
:100F8000074604E0FFF722FDC01B02280FD8686A5D
:100F90008007F7D571484FF4FA510068B0FBF1F0C3
:100FA000009000BF0098411E0091FAD20EE080E050
:100FB000C0F80080FFF70AFD074604E0FFF706FDD2
:100FC000C01B022875D8686A8007F7D420784007CC
:100FD00060D5E8690027C00008D4E86940F0805077
:100FE000E861E869012700F0805000905C480168E2
:100FF000C90513D40168834641F480710160FFF78D
:10100000E5FC824606E000BFFFF7E0FCA0EB0A002B
:1010100064284ED8DBF80000C005F5D5E06801284B
:101020000AD008B1052813D0286A20F001002862F0
:10103000286A20F0040002E0286A40F001002862DB
:10104000E06841F2883B98B1FFF7C0FC82460BE0B4
:10105000286A40F004002862EEE700BFFFF7B6FC04
:10106000A0EB0A0159455AD8286A8007F6D50CE04A
:10107000FFF7ACFC824605E0FFF7A8FCA0EB0A01F5
:1010800059454CD8286A8007F6D41FB1E86920F08A
:101090008050E861E06988B36968C1F38101022981
:1010A00044D00228C6F8608004D0FFF78FFC0446C5
:1010B00038E034E0FFF78AFC074604E0FFF786FCDF
:1010C000C01B02282BD828688001F7D4206AB0F50D
:1010D000803F05D16868A16820F40030084368604B
:1010E000D4E908010843696821F474110843686071
:1010F000C6F86090FFF76AFC044606E025E000BFF2
:10110000FFF764FC001B022809D828688001F7D586
:101110001BE000BFFFF75AFC001B022802D9032086
:10112000BDE8F88F28688001F4D40EE00128F7D0DC
:101130006868226A00F48031914204D1616A00F447
:101140007010884201D00120EAE70020E8E70000A3
:101150000010024000004242800442426800002029
:10116000007000407047704770B590F83C20012A2D
:1011700026D0012480F83C40022280F83D200368FC
:101180005A689D6822F070060A6832435A600D4B17
:1011900002689A4208D0B2F1804F05D00A4B9A42B9
:1011A00002D00A4B9A4204D1496825F080031943C2
:1011B000916080F83D40002180F83C10084670BDE9
:1011C000022070BD002C01400004004000080040D7
:1011D00010B5040003D094F83D0010B107E00120E1
:1011E00010BD002084F83C00204600F01FF80220CB
:1011F00084F83D00211D206800F05CFB012084F88C
:10120000460084F83E0084F83F0084F8400084F8EB
:10121000410084F8420084F8430084F8440084F8D4
:10122000450084F83D00002010BD000008B50068AE
:10123000B0F1804F08D10548C16941F00101C16199
:10124000C06900F00100009008BD000000100240DD
:1012500090F83D10012901D001207047022180F84B
:101260003D1000680B49884208D0B0F1804F05D08E
:101270000949884202D00949884204D1816801F0B5
:101280000701062903D0016841F001010160002037
:1012900070470000002C014000040040000800409E
:1012A00090F83D10012901D001207047022180F8FB
:1012B0003D100168CA6842F00102CA6000680B492B
:1012C000884208D0B0F1804F05D00949884202D049
:1012D0000849884204D1816801F00701062903D03A
:1012E000016841F00101016000207047002C0140BD
:1012F000000400400008004070B5044690F83C002F
:10130000012817D0012584F83C50022084F83D00C4
:101310002068826822F0770222F47F4282600868A7
:10132000502830D00DDC20284DD005DC98B3102893
:101330003BD148E0022070BD302844D0402834D151
:1013400039E0602828D0702806D0B0F5805F2CD016
:10135000B0F5005F29D10AE0CB68D1E9012120680E
:1013600000F0DEFA2068816841F0770109E0CB687F
:10137000D1E90121206800F0D3FA2068816841F4A6
:101380008041816011E0CA684968206800F0DAFA9B
:101390005021206807E016E0CA684968206800F01C
:1013A000E2FA6021206800F0C5FA84F83D50002080
:1013B00084F83C0070BDCA684968206800F0C2FA31
:1013C00040212068EFE7226801461046EBE77047AE
:1013D00070B50446006801694FF00005C9438907EC
:1013E00015D4C168C943890711D4E91E01610120E0
:1013F0002077206880698007204602D0FFF7E7FF4A
:1014000004E000F098F8204600F096F82577206870
:101410000169C943490717D4C168C943490713D4AF
:101420006FF004010161022020772068806910F4C8
:10143000407F204602D0FFF7CAFF04E000F07BF8AF
:10144000204600F079F8257720680169C94309072B
:1014500016D4C168C943090712D46FF008010161AD
:10146000042020772068C0698007204602D0FFF75B
:10147000AEFF04E000F05FF8204600F05DF825774D
:1014800020680169C943C90617D4C168C943C906A0
:1014900013D46FF010010161082020772068C06923
:1014A00010F4407F204602D0FFF791FF04E000F0E7
:1014B00042F8204600F040F8257720680169C943CA
:1014C000C90708D1C168C943C90704D1891E016190
:1014D000204600F033F820680169C943090609D4A1
:1014E000C168C943090605D46FF080010161204637
:1014F000FFF738FE20680169C943490609D4C1686D
:10150000C943490605D46FF040010161204600F04F
:101510001FF820680169C94389060BD4C168C94313
:10152000890607D46FF0200101612046BDE87040B4
:10153000FFF719BE70BD704770470000006803498F
:10154000884201D1FFF748BA70470000002C0140E3
:101550007047FEE700B585B0002002900A48816917
:1015600041F0080181618069694600F0080004903B
:101570004FF47E70009001200190022003900348F8
:10158000FFF72EF905B000BD00100240000C01402D
:1015900010B5064C012220212046FFF711FA204603
:1015A0000022BDE810402021FFF70ABA000C0140DC
:1015B00010B5FFF7CFFF0E4C002208212046FFF7A1
:1015C000FFF9002210212046FFF7FAF9022000F06F
:1015D00051F8282000F04EF80C2000F04BF80620BF
:1015E00000F048F8BDE81040012000F043B80000CA
:1015F000000C014070B5084C054601220821204628
:10160000FFF7DEF9284600F035F82046BDE87040C7
:1016100000220821FFF7D4B9000C014010B50446A0
:1016200003E000BFFFF7E6FF641C20780028F9D133
:1016300010BD000070B50E4D044600F001024021BF
:101640002846FFF7BDF9C4F3400280212846FFF782
:10165000B7F9C4F38002A9152846FFF7B1F9C4F31E
:10166000C00269152846BDE87040FFF7A9B900001F
:10167000000C014010B504460009FFF7DBFFFFF73F
:1016800087FF2046FFF7D6FFBDE81040FFF780BF79
:101690003EB5002410480094019402940D498460E2
:1016A000016004730475012505614FF460214460F5
:1016B000C161FEF761FF08B172B6FEE7CDE90045F2
:1016C000694605480294FEF7D5FE002801D072B69F
:1016D000FEE73EBD00240140CC00002030B585B0BF
:1016E00000241B480094019402940394816941F002
:1016F00010018161816901F010010491816941F05B
:1017000020018161816901F020010491816941F02A
:1017100004018161816901F004010491816941F052
:101720000801816180690B4D00F0080004900022DF
:1017300003212846FFF744F903210120CDE90010D9
:10174000CDE9024169462846FFF74AF805B030BDA9
:1017500000100240000C014010B586B0002416486D
:10176000009401940294039404944FF080410594F2
:1017700001603721C0E901144FF6FF71C0E903147D
:101780008461FFF725FD08B172B6FEE74FF4805083
:10179000009069460848FFF7AFFD08B172B6FEE752
:1017A000049404A904480594FFF7DEFC002801D046
:1017B00072B6FEE706B010BDFC000020FEE7FEE7B3
:1017C00070B506464FF49C7042436420B2FBF0F4BF
:1017D0000D4600223046FFF7F3F8A1B20748FEF7A6
:1017E00041FE012229463046FFF7EAF8C4F59C7015
:1017F000BDE8704081B20148FEF734BEFC00002015
:1018000010B5502080F31188BFF34F8FBFF36F8F57
:1018100000F004FE18B104494FF080500860002029
:1018200080F3118810BD000004ED00E030B593B0E6
:1018300028216846FEF746FD14210AA8FEF742FD5E
:10184000002501200F9510951195010412958DE842
:10185000230004904FF4A010CDE90810022407944F
:101860006846FFF7EFFA08B172B6FEE70AA90F2043
:1018700081E831004FF48060CDE90D0502210AA80E
:10188000FFF7E4F908B172B6FEE74FF4804011901B
:101890000F940FA8FFF764F9002801D072B6FEE795
:1018A00013B030BD704700000148FFF791BD000044
:1018B00098030020F0B50268164B174C174D4FF0F7
:1018C0008047984205D0B84203D0A04201D0A84238
:1018D00003D122F070064A683243984205D0B842DC
:1018E00003D0A04201D0A84203D122F44074CA68B8
:1018F00022434C6922F08002224302608A68C2625D
:101900000A688262984201D109690163012141613B
:10191000F0BD0000002C0140000400400008004021
:1019200010B5846842EA032224F47F440A43224328
:10193000826010BD826822F070020A4342F0070103
:101940008160704710B5036A046A24F001040462E0
:10195000846924F0F00444EA021423F00A020A43E2
:101960008461026210BD10B5036A23F010030362A4
:101970008369046A23F4704343EA023224F0A0032B
:1019800043EA01118261016210BD00002B4C42F25A
:1019900010752088B0B36069064601F0C9FA80B2BC
:1019A000608001F001FB314601F05CFB01F0DCFAE4
:1019B000A08023A0FFF732FE60880A26B0FBF6F075
:1019C0003030C0B2FFF716FE6088B0FBF6F106FBC0
:1019D00011003030FFF70EFEA08801F04CF81C4AD1
:1019E0001C4B00F0C3FE00221B4B00F00FFE01F069
:1019F00015F8C0B2FFF7FEFD00202080284600F059
:101A0000B5F8C6E7FFE71548FEF770FE1348FEF786
:101A1000AFFD206101F02FF84FF06632104B01F05E
:101A20003DF86FF00B0201F0CEFB00F0BDFD6061F0
:101A30000A48FEF7BBFE0120DFE70000000000209F
:101A40004469656E2061702062616E67000000006D
:101A50009A9999999999B93F00004840CC00002083
:101A600066660A401B4C1C4D5FF00006012134F8ED
:101A700016202846FFF7A4FE761CB6B20F2EF5D32B
:101A8000012000F073F81226012134F816202846B0
:101A9000FFF796FE761CB6B2202EF5D35FF0000657
:101AA000022134F816202846FFF78AFE761CB6B2CB
:101AB0000F2EF5D3012000F059F81226022134F838
:101AC00016202846FFF77CFE761CB6B2202EF5D3F2
:101AD000CAE7000018000020000C0140FEE70907DB
:101AE000090E002804DB00F1E02080F800147047A4
:101AF00000F00F0000F1E02080F8141D7047000096
:101B00008EB0FEF771FFFFF791FEFFF7E7FDFFF7DD
:101B100023FEFFF7BDFD0F48FFF79AFBFFF748FDD7
:101B20001C220D496846FEF79BFB0021684600F029
:101B300029F80A4C08491C22A0601C3107A8FEF7AE
:101B40008FFB002107A800F01DF8E06000F015F8F9
:101B5000FEE70000FC0000205432000800000020D6
:101B600001460020842900D0C81C704710B500B978
:101B7000012000F015FB002010BD10B500F036FB71
:101B8000002010BD7FB50D4604464169B0F908003C
:101B900081B1A16971B1FFF7E3FFD4E905128DE8C6
:101BA0000700D4E900102B46226900F00CFC0390DA
:101BB00004B070BDFFF7D4FF03A9CDE90001208A6E
:101BC0002B4682B2D4E9001000F0D0FB012801D0EE
:101BD0000020EDE70398EBE72DE9F041184C0F46A4
:101BE000054666692068001D00F016FA38B92068BD
:101BF00090F82C1001208840A1698143A161681CE4
:101C000007D137B12168BDE8F0410E48091D00F049
:101C100047BA20683544B5424560216805D2A068BE
:101C2000BDE8F041091D00F023BA6068091D00F00D
:101C30001FFA206B854200D22563BDE8F0810000C9
:101C40006C000020BC0400202DE9F041054600F0A6
:101C500033FA2E4C2069401C206120682C4F10B1B3
:101C6000E06940B32DE025602069012829D10026D4
:101C700006EB860007EB800000F0ECF9761C072EDF
:101C8000F6D323488C3000F0E5F92148A03000F06D
:101C9000E1F91F48B43000F0DDF91D48C83000F00C
:101CA000D9F91B48DC3000F0D5F919488C30606058
:101CB0001430A06005E02068E96AC06A884200D854
:101CC0002560E06A401CE062E96A0120A269884060
:101CD0001043A06101EB810007EB8000291D00F09B
:101CE000DFF900F009FAE06900280CD02068E96A01
:101CF000C06A884207D207494FF080500860BFF39E
:101D00004F8FBFF36F8FBDE8F08100006C000020A3
:101D1000E003002004ED00E010B5044690F8510007
:101D200058B101280CD002280FD0502080F3118820
:101D3000BFF34F8FBFF36F8FFEE7206B00F0F0F91A
:101D40002046BDE8104000F0EBB910BD10484FF43C
:101D50004061420706D0C01D0D4920F00700411A1E
:101D6000C1F540610B4A00230144C2E90003083970
:101D7000103A21F0070111604B600B600B1AC0E9AB
:101D8000001393604FF000405360D0607047000034
:101D9000D0040020B8000020144E154CA6F1C8074E
:101DA0004FF08058DFF84C9012E000BF00F084F94B
:101DB000F068C568281D00F02FF92069401E2061D9
:101DC000E068401EE06000F097F92846FFF7A4FFA6
:101DD000E0680028EAD138680128F9D9C9F80080FC
:101DE000BFF34F8FBFF36F8FF2E70000A80400200E
:101DF0006C00002004ED00E02DE9F0479A46DDE993
:101E0000098481466FF00303206B03EB82021044C8
:101E1000089D20F00706700707D0502080F3118836
:101E2000BFF34F8FBFF36F8FFEE723180A5C83F871
:101E300034200A5C12B1401C1028F6D3002784F825
:101E40004370072D00D30625E562C4E91157201D14
:101E500000F00BF904F1180000F007F92461C5F156
:101E600007006462A061E76484F8507052464946F6
:101E7000304600F0BFF82060B8F1000F01D0C8F87C
:101E80000040BDE8F087000030B5114900E0114680
:101E90000A688242FBD34B685C18844203D14068D5
:101EA00018444860084643681C18944209D1084CFD
:101EB000103C2468A24209D052681A4442600A6861
:101EC00012680260814200D0086030BD0460F9E70A
:101ED000B800002006484168096829B14168C9680E
:101EE000C9684968016370474FF0FF31FAE70000A5
:101EF0006C00002008484068401C4FF0500080F300
:101F0000118804D0BFF34F8FBFF36F8FFEE7BFF38D
:101F10004F8FBFF36F8FFEE7C00000202DE9F04127
:101F20000546002700F098F9314E306808B9FFF7F0
:101F30000DFFF06805424BD1C5B3083568070ED0D8
:101F400005F00700C0F108000544680707D05020DD
:101F500080F31188BFF34F8FBFF36F8FFEE72DB370
:101F60007068854234D82248103001460C6801E080
:101F700020460C466168A94202D221680029F7D1A7
:101F800031688C4224D00768216801606068083796
:101F9000411B10290FD96019420708D0502080F347
:101FA0001188BFF34F8FBFF36F8FFEE710E04160E2
:101FB0006560FFF769FF61687068401A7060B26819
:101FC000904200D2B060F06801430020C4E90001F3
:101FD00000F088FA780707D0502080F31188BFF30B
:101FE0004F8FBFF36F8FFEE73846BDE8F0810000EA
:101FF000A800002010B5031F4FF080741C601B1F49
:1020000021F001011960191F024B0B60143940388F
:102010000A6010BDF51E0008D0E9013201699A601E
:10202000D0E901235A604A68824201D182684A603D
:10203000002202610868401E0860086870470000BE
:10204000034B036003F15400086080201060704768
:102050004401002000F108014FF0FF32C0E90112F5
:10206000C16001610021016070470021016170477A
:1020700030B50B685A1C02D000F1080202E0026978
:1020800004E02246546825689D42FAD953684B60A3
:1020900099608A60516008610168491C016030BD27
:1020A00042684A6093688B609368596091600861E8
:1020B0000168491C01607047502080F31188BFF30C
:1020C0004F8FBFF36F8F0A494868401C4860012852
:1020D0000CD10848006810F0FF0F07D0502080F3A3
:1020E0001188BFF34F8FBFF36F8FFEE7704700007B
:1020F000C000002004ED00E00849486828B1401EF7
:10210000486001D180F311887047502080F3118816
:10211000BFF34F8FBFF36F8FFEE70000C0000020BA
:1021200070B5002827D0144DA0F108046168E86854
:10213000014207D1502080F31188BFF34F8FBFF3C6
:102140006F8FFEE722683AB1502080F31188BFF309
:102150004F8FBFF36F8FFEE78143616000F07CF823
:1021600060686968084468602046FFF78DFEBDE836
:10217000704000F0B7B970BDA80000204FF0E0201B
:1021800000210161816105494FF47A720968B1FB50
:10219000F2F1491E4161072101617047680000208A
:1021A00010B5020014D00F48806B38B1502080F376
:1021B0001188BFF34F8FBFF36F8FFEE700F04CF82D
:1021C00000211046FFF708FD00F08CF9002807D128
:1021D00005494FF080500860BFF34F8FBFF36F8FFA
:1021E00010BD00006C00002004ED00E010B586B0CA
:1021F0000024039405AA04A903A80494FFF720FF70
:10220000DDE903010094CDE9011000230EA110487F
:10221000059A00F0D8F80F490028486311D05020E3
:1022200080F31188BFF34F8FBFF36F8F4FF0FF30F4
:1022300008630120C8614C6106B0BDE8104000F0A1
:1022400041B806B010BD000049444C4500000000F4
:10225000991D00086C0000200248816B491C8163B5
:10226000704700006C0000201448816B11B10121FF
:1022700041627047002141628169B1FA81F1C1F187
:102280001F0101EB81020E4951F822306BB101EBC5
:10229000820101F108034A6852684A609A4201D1FA
:1022A00052684A60D16801607047502080F31188FD
:1022B000BFF34F8FBFF36F8FFEE700006C0000206D
:1022C000E00300201CB5264908780190FF20087023
:1022D00008788DF800009DF800009DF8002000F0BF
:1022E000F000904207D0502080F31188BFF34F8F49
:1022F000BFF36F8FFEE79DF800001A4B00F050000F
:1023000018700720986005E09DF8002052008DF8B5
:102310000020401E9DF800201206F5D49860032886
:1023200007D0502080F31188BFF34F8FBFF36F8F1A
:10233000FEE74FF440709860019808700A48016801
:1023400041F470010160016841F070410160FFF7E4
:1023500015FF00205860FDF729FF00201CBD00007C
:1023600000E400E0C000002020ED00E02DE9FF5F68
:102370008346DDE90E87994616468A469000FFF7A8
:10238000CDFD05001CD05420FFF7C8FD040014D07B
:102390000020256384F85100CDE90240CDE9008793
:1023A0004B46324651465846FFF726FD2046FFF77A
:1023B0004BFC012004B0BDE8F09F2846FFF7B0FEBB
:1023C0004FF0FF30F6E7F0B585B0DDE90B640A9D0C
:1023D000A6B1DCB1542700972663022684F8516029
:1023E000002604AFCDE90246CDE90057FFF704FD12
:1023F0002046FFF729FC049805B0F0BD502080F37B
:102400001188BFF34F8FBFF36F8FFEE7502080F32B
:102410001188BFF34F8FBFF36F8FFEE72DE9F041B7
:102420002E4C0027A06B40B1206A401C2062606ADD
:1024300000B101273846BDE8F0816669761C666107
:1024400013D16068006838B1502080F31188BFF361
:102450004F8FBFF36F8FFEE76068A1686160A06077
:10246000A06A401CA062FFF735FD206BDFF870808A
:10247000864209D36068006880B16068C068C5683A
:10248000686886420DD220632068C06A00EB800134
:1024900058F821000128CAD90127C8E74FF0FF30BA
:1024A000F1E7281DFFF7B8FDA86A18B105F118007B
:1024B000FFF7B2FDE86A0121A26981401143A161E1
:1024C00000EB800108EB8100291DFFF7E9FDE86AB8
:1024D0002168C96A8842CDD30127CBE76C00002070
:1024E000E00300202DE9F0472C4D00242746A86B7F
:1024F00038B1FFF7E1FDA86B401EA863A86B40B19F
:1025000046E0502080F31188BFF34F8FBFF36F8FE9
:10251000FEE72969224E0120D1B3A6F1B409804615
:102520003068E8B1F068C46804F11800FFF774FD82
:10253000201DFFF771FDE06AAA6908FA00F1114356
:10254000A96100EB800109EB8100211DFFF7A8FDC7
:10255000E06A2968C96A8842E2D3C5F82480DFE7C7
:102560000CB1FFF7B7FC2C6A44B14646FFF756FFA3
:1025700000B16E62641EF9D100202862686A38B129
:102580000849012738070860BFF34F8FBFF36F8FEB
:10259000FFF7B2FD3846BDE8F08700006C00002070
:1025A0009404002004ED00E021F00042A2F160520A
:1025B000B2F5801F01F0004328BFD2F17F6C0BD928
:1025C0005FEA001C43EAC20242EB507018BF70473A
:1025D00028BF20F001007047B2F5801FBCBF18462D
:1025E00070474FEA410C1CF5001F02D2084600F06C
:1025F00034BD70B500F0FCFA00000089FFF7F6BFAB
:102600004FF00040A0F580007047000010B591EA3F
:10261000030F48BF83F0004300F14683841A71EB37
:10262000030C05D2121943EB0C03001B61EB0C01E8
:10263000DFF824E14FEA1154A4EB135C1EEA430FC8
:1026400018BF9EEA445F73D023EA0E03DCF1200E2C
:1026500021EA045143F4801332D322FA0CFE10EB2A
:102660000E0023FA0CFE41EB0E01CCF1200E03FA12
:102670000EFE10EB0E0051F10001B1F5801FCCF100
:10268000200E32D201EB045112FA0EF2BDE81040D6
:1026900058BF7047401C38BF5FEA420218BF7047FE
:1026A000002814BF20F0010041F100014FEA41036E
:1026B00013F5001F38BF7047A1F1C04100F0E6BA22
:1026C000012A43EB0302ACF1200CDCF11F0E32BFF8
:1026D0004FF0000E23FA0CF310EB030041EB045112
:1026E000B4EB115FD0D0A1EB045101F58011490882
:1026F0005FEA300001EB04510ED350F1000038BF07
:1027000012FA0EFE08D1BDE81040C9E7401C38BFE0
:102710005FEA4202CAD1C3E7BDE810404FEA410375
:1027200013F5001F38BF7047A1F1C04100F0AEBAE9
:102730009EEA445F08D011EA5E0FBDE8104004BF76
:1027400001F0004100207047BDE8104070B500F076
:102750004FFA00BF64FBBE3E0000E0FF02494FF0AD
:10276000000000F0FEBC00BF0000F87F2DE9C04172
:1027700030B4DFF8A0C23CEA111418BF3CEA1314CD
:1027800000F0EC8081EA03051CEA111444EAD574D8
:1027900018BF1CEA131500F0C780A4EB05044FF026
:1027A000004545EAC12145EAC32341EA505143EAC5
:1027B000525304F17F74994204F500344FEAC0206B
:1027C0004FEAC22208BF904200F09C804FEA136596
:1027D0000FF24016765D4FEA134506FB05F7C7F189
:1027E000807706FB07F74FEAD737A7FB03687642E7
:1027F000C8F58038A7FB06CE38BFA8F1010807FB53
:1028000008E64FF0000EA6FB028CE6FB03CEDCF1DF
:10281000000CCEF1004E38BFAEF1010EA6FB0C58F5
:102820004FF000074FF00005E6FB0E87A1FB08C63E
:10283000A0FB07CE16EB0E0645F10005E1FB076590
:1028400015F1E04E7EBFA4F580345FEA46066D4187
:1028500016F1800745F100054FEA17274FEA066693
:1028600047EA0567A6F1DE46B6F1805F4FEA152517
:102870001FD9384624F0010C05EBC471BCF1FE6F82
:1028800001EB0C1102D8F0BCBDE8008124425CBF12
:1028900001F5801E9EEAC47F02D4F0BCBDE8008131
:1028A000244238D4F0BCA1F1C041BDE8004100F0A1
:1028B000EDB94FEAD22242EA43524FEAD323A7FBB3
:1028C00002864FEAD02040EA415007FB03661EEA29
:1028D0000E0F4FEAD12105FB026658BFA6EB00564A
:1028E000B6EB00564FEA520E4EEAC37E18EB0E0EC0
:1028F00056EB530EBDD518EB02085E417F1C55F117
:102900000005B6E74FF480154FF000074FF00006C2
:102910004FF00008ADE7F0BC4FF0000001F1C041FE
:1029200001F00041BDE8008111EA0C1F0CEA13150B
:1029300000D00CE013EA0C1F00F025804FF00000DF
:10294000F0BC81EA030101F00041BDE80081F0BC68
:10295000BDE8004181EA030100F098B9F0BCBDE890
:10296000004170B500F044F9097EFC3E00F007B864
:1029700081EA03014FF0000001F00041704781EA55
:10298000030100F083B9F0BCBDE800414FF0000046
:1029900021497047FFFDFBF9F7F5F4F2F0EEEDEB9E
:1029A000E9E8E6E4E3E1E0DEDDDBDAD8D7D5D4D34D
:1029B000D1D0CFCDCCCBCAC8C7C6C5C4C2C1C0BF99
:1029C000BEBDBCBBBAB9B8B7B6B5B4B3B2B1B0AF9F
:1029D000AEADACABAAA9A8A8A7A6A5A4A3A3A2A183
:1029E000A09F9F9E9D9C9C9B9A999998979796953E
:1029F00095949393929191908F8F8E8E8D8C8C8BDA
:102A00008B8A898988888787868585848483838261
:102A1000828181800000FF070000F87F4FEA115398
:102A2000A3F58063D3F11E03A8BFD3F1200C08DB0C
:102A30004FF0004242EAC12252EA505232FA03F009
:102A4000704709420BD4102BC4BF0020704703F518
:102A5000787CBCF1FF3F05D04FF0FF3070474FF05E
:102A60000000704770B500F0C3F800BF49922480A1
:102A700000207047F0E7B0FA80F310FA03F10AD0B3
:102A8000C3F11D0303F580634FEA41504FEA03523F
:102A900002EBD12170474FF000007047DFF848C1CA
:102AA00070B51CEA111E1EBF1CEA13159EEA0C0F1E
:102AB00095EA0C0F00F06F8081EA030423EA4C13BF
:102AC0004EEAD47E21EA4C1141F4801143F4801384
:102AD000AE44A1FB024CA0FB0365AEF17F7E36192C
:102AE00055EB0C05A1FB034C4CF10003A0FB021CB1
:102AF00016EB0C06654153F10003094218BF46F07E
:102B0000010613F4007F0BD14FEA03314FEA053081
:102B1000340341EA155140EA16506FF003020AE00F
:102B20004FEAC3214FEAC520F40241EA555140EA79
:102B300056506FF0020202EB2E4201EB025585EA7D
:102B4000CE710AD05FEA440C18BF24F0004450F163
:102B5000000041F1000120EAD47040F2FE7C6245A1
:102B600000D270BDA84214BF4FF080444FF04044E3
:102B7000002E08BF0024BEF1806FA8BFA1F1C041A4
:102B8000BDE8704080F282804FF0000001F1C0414A
:102B900001F0004170479EEA0C0F0CEA131518BFB4
:102BA00095EA0C0F06D04FF0000081EA030E0EF0FC
:102BB000004170BD00F01CF88900013E00F007B82C
:102BC00000F009B84FEA430C5FEA5C5C08D081EA88
:102BD000030100F05BB84FEA410C5FEA5C5CF6D1A0
:102BE0004FF00000014970470000FF070000F87F28
:102BF0000EF1020E2EF0030E5EF8046B364205D481
:102C0000012A43EB030515F5001F12D8012841EBFB
:102C1000010C1CF5001F0CD80ED14FEAD17C15F524
:102C2000001F0CEB4C0C0CF1020C08BF4CEBD37CDE
:102C300004E04FF0080C01E04FEAD37C0CEB4C05AC
:102C400026FA05F606F00706B6F1040C06D20EEBDE
:102C5000860CBDE870404CF0010C6047DFE80CF0DA
:102C6000090B02024FF000414FF00000A1F50021D6
:102C700070BD19461046012851EB010418BFD4F568
:102C8000001484BF002001F0004170BD0808A0F5C9
:102C900000114FEA3101704710B591EA030F48BFA8
:102CA00083F000433FF5BAAC841A71EB030C07D2F2
:102CB00012198CF0004C43EB0C03001B61EB0C0170
:102CC000DFF8A4E14FEA1154A4EB135C1EEA430FB2
:102CD00018BF9EEA445F00F0B08023EA6E035242C0
:102CE00021EA0451C3EB6E0338BF5B1EDCF1200EFA
:102CF00025D322FA0CFE10EB0E0043FA0CFE41EB3A
:102D00000E01CCF1200E03FA0EFE10EB0E0051F175
:102D10000001CCF1200E29D412FA0EF201EB04517D
:102D2000BDE8104058BF7047401C1CBFB2F1004FB7
:102D3000704700280CBF491C20F00100704712EBBF
:102D4000020E43EB030218BF4FF0010E4EEA42029F
:102D5000ACF1200CDCF11E0E54D943FA0CFE10EB42
:102D60000E0051F1FF31CCF11E0ED5D50EF1010E42
:102D700012FA0EFE404141EB010101EB445C5FEAB7
:102D80005C5C10D910EBDE7001EB045138BFBEF172
:102D9000004FBDE8104018BF704700280CBF491C09
:102DA00020F00100704730D24FEAD42C11F5001109
:102DB00024F400641BD0B1FA81F20B3AA41AA41EC9
:102DC000D2F12003914030FA03F31943904001EB14
:102DD000CC71002C01EB0451BDE81040A8BF704736
:102DE00001F1C0414FF0000001F000417047B0FA1E
:102DF00080F310FA03F100D110BDE41A173C480526
:102E0000C90AE4E701EB045110BD491001EB04517C
:102E1000BDE810404FEA300002E04FF0000170477B
:102E20004A0008BF0042F8D0B2F5001F28BF704723
:102E300001F000414FF0000070479EEA445F07D068
:102E400011EA5E0FBDE8104004BF0021002070476A
:102E5000BDE8104070B5FFF7CBFE00BF40DFF63E87
:102E600083F00041104670470000E0FF90EA010F38
:102E700048BF81F0004100F10681421A3CBF801A30
:102E800089184FEAD0524FF07F4C1CEA410FA2EB59
:102E9000D15318BF9CEA026F00F03B804FF0004C0A
:102EA0004CEA00204CEA012121FA03FC10EB0C0C47
:102EB0001ED202F1FF325FEA1C2040EBC25038BF45
:102EC00070471CF07F0F4FEA400C18BFBCF17F4FDA
:102ED00038BF7047C3F12003994008BF20F00100BC
:102EE000BCF17F4F38BF7047A0F1C04000F0B5B8CB
:102EF0004FEA3C00000A40EBC25028BF1CF0FF0F15
:102F00004FEA400CE6D018BFBCF17F4F38BF704786
:102F1000EAE79CEA026F05D010EA5C0F08BF00F0F8
:102F20000040704710B500F052F800BF64FBBE3E91
:102F300041000B0ED3F19E0208D950F400034FEA72
:102F4000032323FA02F048BF4042704710B500F057
:102F50003EF800BF49922480002070476FF0004285
:102F600082EA200070470000C10DD1F19E0206DB0D
:102F70004FEA002343F0004323FA02F07047004277
:102F800007D54FEA4001B1F1FE4F02D24FF00000E9
:102F9000704710B500F01BF849922480002070475C
:102FA0006FEA200070470000B0FA80F310FA03F2D5
:102FB000C3F19D030AD0D90501EB1220530638BF97
:102FC000704700F1010008BF20F0010070470EF1CA
:102FD000020E2EF0030E5EF8044B244204D44FEA96
:102FE0004102B2F17F4F11D84FEA4003B3F17F4F56
:102FF0000CD80ED14FEAD07CB2F17F4F0CEB4C0CC9
:103000000CF1020C08BF4CEBD17C04E04FF0080C33
:1030100001E04FEAD17C0CEB4C0324FA03F404F0FA
:103020000704B4F1040C06D20EEB840CBDE810408A
:103030004CF0010C6047DFE80CF0070802024FF08B
:103040000040A0F5800010BD0846420018BFD2F134
:10305000807288BF00F0004010BDFF2141EAD050CF
:10306000C005704780F0004090EA010F7FF505AF82
:1030700081F0004100F007B890EA010F48BF81F0ED
:1030800000413FF5FAAE421A04D882F00042A0EBAC
:10309000020011444FEAD0524FF07F4C1CEA410F1E
:1030A000A2EBD15318BF9CEA026F4AD04FF0004CFC
:1030B0004CEA00204CEA012121FA03FCB0EB0C0C95
:1030C0000FD412F0FE0F36D05FEA4C001DD500126F
:1030D00040EBC25038BF70471CF03F0F18BF70471D
:1030E0000BE0A2F101025FEA1C2040EBC25038BFA6
:1030F00070471CF07F0F18BF7047C3F12003994041
:1031000014BF401E20F00100704780084FEA1223D0
:1031100008BF7047B0FA80FCA2EB0C02CCF1280C7F
:1031200060FA0CF093EA122F04BF00EBC250704714
:103130004FEAC3707047130A5FEADC1008BF70479C
:10314000F6E79CEA026F04D010EA5C0F08BF00208B
:10315000704710B5FFF73BFF40DFF63E81F00040BF
:1031600070470CF00F03092B08BF082000F05980AE
:103170000A2B0BD0082B18BF704708BF1CF0400F5C
:103180000AD04FF000004FF0000170471CF0400FD4
:1031900018BF4FF0004070471CF0100F08D020F00F
:1031A000704300F07F4242EAD3014FEA4370704718
:1031B00000F0604021F07F4242EA000201F07F40CF
:1031C00040EA727070474FF0FF0C4CF4E06C1CEA60
:1031D00011531CBF9CEA030C9445C2BFDA4201EBB9
:1031E00002517047002B0DD0BCF1000F0FD0002A08
:1031F00001F00041A4BF41F0E04141F07F614FF098
:103200000000704701F000414FF00000704750EAA5
:1032100001334FF09B0C18BF4CF0806C7FF49EAADA
:1032200070471CF4801F11D01CF4E02F03D06FEA0C
:10323000CC31490070474FF04050EFF3008222F04C
:10324000704242EA000282F3008870474FF00000AB
:1032500070470000A4320008651A00080200000050
:1032600000000000800000000000000000000000DE
:10327000AC3200088D190008FEFF000000000000BD
:1032800080000000000000000000000000000000BE
:103290000000000001020304060708090000000006
:1032A000010203045461736B310000005461736BBD
:1032B00032000000D432000800000020CC000000E2
:1032C00028010008A0330008CC000020641600008C
:1032D00044010008000000000000000000000000A1
:1032E00000000000000000000000000000000A00D4
:1032F00013001D0026002F0038003F0047004D003E
:10330000530058005C0060006200640064006400C8
:10331000620060005C00580053004D004700400010
:1033200038002F0026001D0014000A0000000000D5
:103330000100000010000000000000000024F40064
:10334000000000000000000000000000000000007D
:10335000000000000000000000000000000000006D
:10336000000000000000000000000000000000005D
:10337000000000000000000000000000000000004D
:10338000000000000000000000000000000000003D
:103390000000000000000000AAAAAAAA0000000085
:04000005080000ED02
:00000001FF
